:060000000A128A11ED2F27
:10000A000134FD01FB1F0A280B281228FA09FB09F3
:10001A00FA0A0319FB0AFD01FD0AF91F1528162819
:10002A001B28F809F909F80A0319F90A7808790462
:10003A000319202821285028FC01FC0A2F28013006
:10004A000310F80DF90DFF3E031D25280130FF00AE
:10005A007F08FC07F91F32283328242879087B02F5
:10006A00031D392878087A02031C3C283D284328B6
:10007A007808FA027908031CFB03FB02013003101B
:10008A00F90CF80CFF3E031D44280130FC02031D45
:10009A004F28502833287D080319542855285A28F0
:1000AA00FA09FB09FA0A0319FB0A7B08F9007A081C
:1000BA00F800080083120313C901CA01831203134B
:1000CA004908803EC400FF300A128A15FB250A122D
:1000DA008A11013083120313C9070318CA0A0030B0
:1000EA00CA074A08803AFF0080307F02031D7F2832
:1000FA0010304902031C8228832863288730F400C1
:10010A008830F500C030F6000A128A15A7260A12AE
:10011A008A113330F4008830F5009030F6000A1264
:10012A008A15A7260A128A1183120313CB01CC015E
:10013A00831203134B08D03EC400FF300A128A15FB
:10014A00FB250A128A11013083120313CB07031805
:10015A00CC0A0030CC074C08803AFF0080307F027E
:10016A00031DB92810304B02031CBC28BD289D284A
:10017A001A3083120313C8005E30C7006D30C60000
:10018A00C60BC528C70BC528C80BC528CC2808002C
:10019A0083120313CC0040290A128A157A260A12FE
:1001AA008A115C290A128A1115220A128A115C29FB
:1001BA004C080A128A11F4230A128A115C294C0883
:1001CA000A128A11F4230A128A115C2930083104AE
:1001DA00031DF028F12832294C080A128A11E72552
:1001EA000A128A1183120313CA00CB014A08B40007
:1001FA004B08B50034033504031D042905290E29CB
:10020A000130B2000030B3001430BA000030BB0035
:10021A005C2934083504031D132914292F291211C6
:10022A000130B2000030B3000130B0000030B1003C
:10023A000A128A15C3250A128A111330831203136C
:10024A00BA000030BB004C080A128A11F4230A12C1
:10025A008A115C29B201B3015C294C080A128A117D
:10026A00F4230A128A115C29121107110130BC0009
:10027A000030BD005C293D08003A031945295C2974
:10028A003C08013A0319D128033A0319DD28013A37
:10029A000319E428073A0319EB28013A0319D72866
:1002AA00033A0319D728013A031939295C29831219
:1002BA00031332083304031D6329642968290F30A4
:1002CA00BA000030BB000800831203138811081516
:1002DA00881408146430F0000030F100FF30F00791
:1002EA000318F10AFF30F107700A031D8029710A09
:1002FA00031D80298129732983120313061886296D
:10030A00872989290130142A86188C298D298F2951
:10031A000230142A06199229932995290330142A9E
:10032A0088150811881408146430F0000030F100B0
:10033A00FF30F0070318F10AFF30F107700A031DB6
:10034A00AA29710A031DAA29AB299D29831203131D
:10035A000618B029B129B3290430142A8618B629F7
:10036A00B729B9290530142A0619BC29BD29BF297C
:10037A000630142A88150815881008146430F0000D
:10038A000030F100FF30F0070318F10AFF30F107DF
:10039A00700A031DD429710A031DD429D529C72936
:1003AA00831203130618DA29DB29DD290730142AF8
:1003BA008618E029E129E3290830142A0619E629D2
:1003CA00E729E9290930142A88150815881408101C
:1003DA006430F0000030F100FF30F0070318F10A32
:1003EA00FF30F107700A031DFE29710A031DFE2959
:1003FA00FF29F129831203130618042A052A072A5A
:10040A002A30142A86180A2A0B2A0D2A0030142A9E
:10041A000619102A112A132A2330142AFF30080039
:10042A000A128A150C270A128A110E30F400893032
:10043A00F5008030F6000A128A15A7260A128A11D8
:10044A000A30F0000030F100831203133908F30078
:10045A003808F2000A128A1599270A128A117008B6
:10046A00303E83120313BE000A30F8000030F90050
:10047A003908FB003808FA000A128A1106200A1203
:10048A008A117808303E83120313BF00C0013E3040
:10049A00F4000030F5008930F6000A128A15A72602
:1004AA000A128A118B3083120313C4003A300A12DB
:1004BA008A15FB250A128A118C3083120313C40091
:1004CA000A30F0000030F1003708F3003608F20075
:1004DA000A128A1599270A128A117008303E0A12DE
:1004EA008A15FB250A128A118D3083120313C40060
:1004FA000A30F8000030F9003708FB003608FA0025
:10050A000A128A1106200A128A117808303E0A1243
:10051A008A15FB250A128A112230F4008830F50068
:10052A00C030F6000A128A15A7260A128A1111305B
:10053A00F4008830F5009030F6000A128A15A726D2
:10054A000A128A110030F4008830F500D030F60023
:10055A000A128A15A7260A128A1183120313380867
:10056A003904031DB92ABA2AF12A36083704031DA9
:10057A00BF2AC02AF12A121107110A128A15C325A5
:10058A000A128A117730F4008830F500C030F6007C
:10059A000A128A15A7260A128A11831203138714CC
:1005AA004D3083120313C8001930C7004F30C600FC
:1005BA00C60BDD2AC70BDD2AC80BDD2A83120313FB
:1005CA0087100A128A15C3250A128A11013083126A
:1005DA000313BC000030BD0008000A128A15102659
:1005EA000A128A110A128A115F200A128A110A1241
:1005FA008A15C3250A128A11013083120313BC001B
:10060A000030BD0001300A128A1553260A128A11D7
:10061A0083120313D00002303C063D040319162B43
:10062A00172BE82B03303C063D0403191D2B1E2B08
:10063A00E82B04303C063D04031D242B252B272BD5
:10064A00E82BE82B5003031D2B2B2C2B5F2B02309E
:10065A00BC000030BD001130BA000030BB00F00110
:10066A000C300A128A15D6260A128A110A128A151B
:10067A00C3250A128A11C230F4008830F500C0304E
:10068A00F6000A128A15A7260A128A114D30831219
:10069A000313CF001930CE004F30CD00CD0B532BB2
:1006AA00CE0B532BCF0B532B0A128A15C3250A12D2
:1006BA008A11E82B02305006031D642B652B6E2B22
:1006CA000330BC000030BD001230BA000030BB005D
:1006DA00592B03305006031D732B742B7D2B0430CA
:1006EA00BC000030BD001430BA000030BB00592BEA
:1006FA0004305006031D822B832BD12B3C033D046F
:10070A00031D882B892B962BB801B9011E30B60020
:10071A000030B700121507150630BC000030BD00C6
:10072A00E82B06303C063D04031D9C2B9D2BC32B56
:10073A0036081E3EB60037080318013E003EB700D1
:10074A003708803AFF0080307F02031DAE2B3C3011
:10075A003602031CB12BB22B262B01308312031352
:10076A00B8070318B90A0030B9073608C43EB600FC
:10077A0037080318013EFF3EB700E82B08303C0655
:10078A003D04031DC92BCA2B262B1215071505304C
:10079A00BC000030BD00E82B05305006031DD62BE7
:1007AA00D72BDD2B0830BC000030BD000711E82B29
:1007BA0006305006031DE22BE32B262B0730BC0024
:1007CA000030BD00592B8312031350080A128A11F4
:1007DA00CD200A128A11072B0A128A1100288312C5
:1007EA000313C6003B08803AFF0080307F02031DD6
:1007FA00002C11303A02031C032C042C332CFF303A
:10080A0083120313C600A801A901B601B701B801F2
:10081A00B901AE01AF01AA01AB014430F40088303E
:10082A00F5008030F6000A128A15A7260A128A11E4
:10083A00F730F4008830F500C030F6000A128A1545
:10084A00A7260A128A116630F4008830F500D030E3
:10085A00F6000A128A15A7260A128A1183120313AE
:10086A00460A0319392C3A2CE32C2A304606031976
:10087A003F2C402CE32C233046060319452C462CEA
:10088A00E32C0130A8070318A90A0030A907290890
:10089A00803AFF0080307F02031D552C0330280266
:1008AA000318582C592C732C831203133708F100A0
:1008BA003608F0000A30F2000030F3000A128A15F6
:1008CA002E260A128A118312031346087007B600ED
:1008DA000030031801307107B700AA2C83120313E2
:1008EA002908803AFF0080307F02031D7E2C0330E6
:1008FA002802031C812C822CAA2C83120313290898
:10090A00803AFF0080307F02031D8D2C05302802BB
:10091A000318902C912CAA2C831203133908F10086
:10092A003808F0000A30F2000030F3000A128A1583
:10093A002E260A128A118312031346087007B8007A
:10094A000030031801307107B90083120313290814
:10095A00803AFF0080307F02031DB52C0230280246
:10096A000318B82CB92CBE2C83120313AA01AB01AD
:10097A00392D831203132908803AFF0080307F0241
:10098A00031DC92C03302802031CCC2CCD2C392D75
:10099A00831203132908803AFF0080307F02031D67
:1009AA00D82C053028020318DB2CDC2C392D013019
:1009BA0083120313AA000030AB00392D2A304606F1
:1009CA00031DE82CE92C262D2908803AFF008030E7
:1009DA007F02031DF22C033028020318F52CF62C93
:1009EA00FF2C83120313B601B701A801A901AA01BA
:1009FA00AB01392D831203132908803AFF00803096
:100A0A007F02031D0A2D03302802031C0D2D0E2D13
:100A1A00392D831203132908803AFF0080307F02A0
:100A2A00031D192D0530280203181C2D1D2D392DE3
:100A3A0083120313B801B9010230A8000030A900DB
:100A4A00DC2C23304606031D2B2D2C2D392D0A12A2
:100A5A008A15C3250A128A11831203131215071560
:100A6A000630BC000030BD000A30F0000030F10052
:100A7A00831203133708F3003608F2000A128A15A4
:100A8A0099270A128A117008303E83120313C10093
:100A9A000A30F8000030F9003708FB003608FA007F
:100AAA000A128A1106200A128A117808303E831225
:100ABA000313C200C3010A30F0000030F100390804
:100ACA00F3003808F2000A128A1599270A128A11C5
:100ADA007008303E83120313BE000A30F80000305B
:100AEA00F9003908FB003808FA000A128A110620B0
:100AFA000A128A117808303E83120313BF00C0011C
:100B0A000130AC070318AD0A0030AD0733302C06AC
:100B1A002D04031D912D922DB82DAC01AD012E0887
:100B2A002F040319992D9B2D01309C2D0030C400F0
:100B3A00C5014408AE004508AF003E30F40000305D
:100B4A00F500C630F6000A128A15A7260A128A117B
:100B5A004130F4000030F500C930F6000A128A1557
:100B6A00A7260A128A11831203132E082F040319C7
:100B7A00BF2DC02DE62DD92D0E30F4008830F5009A
:100B8A00C930F6000A128A15A7260A128A11E62D1A
:100B9A000E30F4008830F500C630F6000A128A15C5
:100BAA00A7260A128A11E62D2B08003A0319DE2D10
:100BBA00E62D2A08003A0319C12D013A0319CD2D51
:100BCA00E62D080083120313C90014303A063B04C9
:100BDA00031DF02DF12D312EFF30C900A201A30112
:100BEA00A601A701A001A101A401A501B430F40046
:100BFA008830F5008030F6000A128A15A7260A12F4
:100C0A008A118C3083120313C400DF300A128A154A
:100C1A00FB250A128A112F30F4008930F5008D3035
:100C2A00F6000A128A15A7260A128A11EB30F40076
:100C3A008830F500C030F6000A128A15A7260A1273
:100C4A008A116630F4008830F500D030F6000A12B6
:100C5A008A15A7260A128A1183120313490A03194D
:100C6A00372E382E712E2A30490603193D2E3E2E74
:100C7A00712E233049060319432E442E712E01305A
:100C8A00A2070318A30A0030A3072308803AFF002B
:100C9A0080307F02031D532E043022020318562E81
:100CAA00572E662F831203132108F1002008F00043
:100CBA000A30F2000030F3000A128A152E260A12B0
:100CCA008A118312031349087007A0000030031821
:100CDA0001307107A100662F2A304906031D762EBE
:100CEA00772E7C2EA201A301A001A101662F233039
:100CFA004906031D812E822E662F0A128A15C325E4
:100D0A000A128A11831203132108803AFF008030E5
:100D1A007F02031D922EFB302002031C952E962E75
:100D2A00BC2E9630F4008830F500C030F6000A1266
:100D3A008A15A7260A128A118312031387143330DD
:100D4A0083120313C800BB30C700DF30C600C60BCE
:100D5A00AC2EC70BAC2EC80BAC2E83120313871014
:100D6A000A128A15C3250A128A110130EC2FD030D3
:100D7A00F4008830F5008030F6000A128A15A7269A
:100D8A000A128A11323083120313B6000030B700F8
:100D9A0012150330F4008930F5009030F6000A127B
:100DAA008A15A7260A128A115C2F0A128A150C279D
:100DBA000A128A1183120313C600460C0318E62E80
:100DCA00EA2E831203138615ED2E8312031386115E
:100DDA00861DF02EF12E072FD030F4008830F50052
:100DEA008030F6000A128A15A7260A128A110330E1
:100DFA00F4008930F5009030F6000A128A15A72609
:100E0A000A128A119A3083120313C4006430F00064
:100E1A000030F1003708F3003608F2000A128A158A
:100E2A0099270A128A117008303E0A128A15FB2580
:100E3A000A128A119B3083120313C4000A30F80085
:100E4A000030F9000A30F0000030F1003708F300F2
:100E5A003608F2000A128A1599270A128A117108AD
:100E6A00FB007008FA000A128A1106200A128A1177
:100E7A007808303E0A128A15FB250A128A119C301C
:100E8A0083120313C4000A30F8000030F90037084F
:100E9A00FB003608FA000A128A1106200A128A1181
:100EAA007808303E0A128A15FB250A128A11831223
:100EBA00031336083704031D632F642FDA2E00301C
:100ECA00EC2F013083120313A4070318A50A00307C
:100EDA00A5071A3024062504031D742F752FD82F51
:100EEA00A401A5012608270403197C2F7E2F0130AF
:100EFA007F2F0030C600C7014608A6004708A70092
:100F0A00C830C4006430F0000030F1002108F3005A
:100F1A002008F2000A128A1599270A128A11700803
:100F2A00303E0A128A15FB250A128A11C930831229
:100F3A000313C4000A30F8000030F9000A30F00048
:100F4A000030F1002108F3002008F2000A128A1585
:100F5A0099270A128A117108FB007008FA000A120E
:100F6A008A1106200A128A117808303E0A128A1556
:100F7A00FB250A128A11CA3083120313C4000A30ED
:100F8A00F8000030F9002108FB002008FA000A12D4
:100F9A008A1106200A128A117808303E0A128A1526
:100FAA00FB250A128A118312031326082704031940
:100FBA00DF2FE02FEB2F0D30F4008830F500C8301A
:100FCA00F6000A128A15A7260A128A111130080099
:100FDA000A128A1105200A128A11D10083132030BD
:100FEA00840044300A128A15CB250A128A11830119
:100FFA000A128A11F22A203436342E3453345434E5
:10100A004F345034203420342034203420342034D7
:10101A002034203420340034203435342E345034F3
:10102A004134553453344534203420342034203468
:10103A0020342034203420340034203434342E3404
:10104A00533454344134523454342F3452344534A2
:10105A00533455344D3445342034003420344D341F
:10106A006934633472346F34773461347634653476
:10107A0020344F34763465346E342034003453349B
:10108A00453454342034543449344D3445342034AE
:10109A0028344D344D343A345334533429340034DB
:1010AA0044346F346F3472342034533474346134BA
:1010BA007434753473343A344F34503445344E34BE
:1010CA0000342A343A3443344C34453441345234AB
:1010DA002034203423343A3445344E34543445349D
:1010EA005234003443346F346F346B3469346E34A1
:1010FA0067342034543469346D34653420345534BB
:10110A00503400342034203450346F34773465340A
:10111A00723469346E34673420344F344E34203498
:10112A000034203449346E34763461346C34693492
:10113A0064342034543465346D3470342E340034BD
:10114A002034203450346C3465346134733465345B
:10115A00203443346C346F3473346534003453347C
:10116A00453454342034543445344D3450342E34B8
:10117A0020342834203420340034203450346F345E
:10118A0077346534723420343D3420343934303481
:10119A0030345734003420342034503472346534B7
:1011AA002D34483465346134743469346E346734A8
:1011BA00003433342E3443346F346E347634653429
:1011CA006334743469346F346E34003420345434E4
:1011DA0045344D34503420343A34203430343034A9
:1011EA0030340034543449344D3445342D342034A9
:1011FA00303430343A34303430340034543469348E
:10120A006D3465342034523465346D342E343D34B3
:10121A0000342034543449344D34453420343D3478
:10122A002034003432342E344734723469346C3406
:10123A006C34003431342E344D34693463347234AE
:10124A006F34003434342E34533474346134723489
:10125A00743400344334203429340034FF1B3D29CC
:10126A0083137F1883170008840A0319FF0A0800EA
:10127A007F087F398A000408840A0319FF0A82005A
:101B8600F00101300A128A15D6260A128A150800B3
:101B960064008001840A0406031900340406CC2D6F
:101BA600831603138801091189100A128A15422720
:101BB6000A128A1508008312031312149214FA30BB
:101BC6008316031392008C14831203131211080058
:101BD600831603130608073886000808F0398800BC
:101BE6008113831203138815081588140814080036
:101BF60083120313C500F00144080A128A15D6267B
:101C06000A128A15F001F00A8312031345080A1214
:101C16008A15D6260A128A1508000A128A15D325AD
:101C26000A128A150A128A15EB250A128A150A1251
:101C36008A15DE250A128A15831603138710831266
:101C46000313871083160313071183120313071157
:101C56000B178B170800F401F501701C332E342E78
:101C66003A2E7208F4070318F50A7308F5070130CF
:101C76000310F20DF30DFF3E031D3B2E0130031042
:101C8600F10CF00CFF3E031D422E70087104031D7B
:101C96004D2E4E2E302E7508F1007408F000080007
:101CA600F2000A128A1169210A128A15F3007208D3
:101CB600031D5E2E5F2E612E7308792E730A03199B
:101CC600652E662E6F2E83120313510803196C2E90
:101CD6006D2E6F2ED1015F2E730A031D732E742E87
:101CE600782E83120313D101D10AFF3008001F306A
:101CF600F4008930F5008030F6000A128A15A7260E
:101D06000A128A151730F4008930F500C030F60043
:101D16000A128A15A7260A128A15DE30F4008830C0
:101D2600F5009030F6000A128A15A7260A128A15BF
:101D36002730F4008930F500D030F6000A128A15F3
:101D4600A7260A128A150800F00176080A128A15D3
:101D5600D6260A128A15C52EF001F00A7508FF006C
:101D6600740884000A128A1533210A128A150A1287
:101D76008A15D6260A128A150130F4070318F50AC1
:101D86000030F507750883120313FF0074088400FA
:101D96000A128A1533210A128A15003A031DD42E17
:101DA600D52EAF2E0800F3007018DA2EDE2E831221
:101DB60003130915E12E8312031309117308F03971
:101DC60088008914A630F100F10BE72E000083127B
:101DD6000313891073080F39F10003300310F10D56
:101DE600FF3E031DF12E0310710D88008914A630E5
:101DF600F100F10BFC2E00008312031389101B3037
:101E0600F2009E30F100F10B062FF20B062F0000B8
:101E16000800831203138619112F122F402F8714DF
:101E2600071112110A128A15C3250A128A1555308E
:101E3600F4008830F500C030F6000A128A15A7268D
:101E46000A128A15A530F4008830F5009030F600A5
:101E56000A128A15A7260A128A1583120313861DEB
:101E6600352F362F302F0A128A15C3250A128A15E6
:101E76008312031312158710071501300800C330AB
:101E8600F500CD30F400F40B462FF50B462FF0018C
:101E960030300A128A15D6260A128A151B30F5002A
:101EA6009E30F400F40B552FF50B552F0000F00172
:101EB60030300A128A15D6260A128A15A630F40080
:101EC600F40B632F0000F00130300A128A15D62673
:101ED6000A128A156E2F6F2F0000F00102300A12C7
:101EE6008A15D6260A128A15A630F400F40B792F25
:101EF6000000F00101300A128A15D6260A128A1548
:101F06000430F5003D30F400F40B872FF50B872FD6
:101F16008C2FF0010C300A128A15D6260A128A1561
:101F2600A630F400F40B952F00000800F501F11F10
:101F36009D2F9E2FA52FF009F109F00A0319F10A2A
:101F4600F501F50AF31FA82FA92FB22FF209F309FD
:101F5600F20A0319F30A0130FF007F08F506F601BD
:101F6600F701700871040319B92FBA2FF12FF40184
:101F7600F40AC82F01300310F00DF10DFF3E031DCA
:101F8600BE2F0130FF007F08F407F11FCB2FCC2FA7
:101F9600BD2F01300310F60DF70DFF3E031DCD2FAB
:101FA60071087302031DD92F70087202031CDC2FFF
:101FB600DD2FE42F7008F2027108031CF303F3020D
:101FC600761401300310F10CF00CFF3E031DE52FD3
:101FD6000130F402031DF02FF12FCC2F75080319E1
:101FE600F52FF62FFB2FF609F709F60A0319F70A5C
:0A1FF6007708F1007608F0000800FB
:08400000FF3FFF3FFF3FFF3FC0
:02400E00FB3F76
:00000001FF
